{
  "contractName": "Crowdsale",
  "abi": [
    {
      "constant": true,
      "inputs": [],
      "name": "tokenPriceWei",
      "outputs": [
        {
          "name": "",
          "type": "uint256"
        }
      ],
      "payable": false,
      "stateMutability": "view",
      "type": "function"
    },
    {
      "constant": true,
      "inputs": [],
      "name": "endBlock",
      "outputs": [
        {
          "name": "",
          "type": "uint256"
        }
      ],
      "payable": false,
      "stateMutability": "view",
      "type": "function"
    },
    {
      "constant": true,
      "inputs": [],
      "name": "refundCount",
      "outputs": [
        {
          "name": "",
          "type": "uint256"
        }
      ],
      "payable": false,
      "stateMutability": "view",
      "type": "function"
    },
    {
      "constant": true,
      "inputs": [],
      "name": "maxCap",
      "outputs": [
        {
          "name": "",
          "type": "uint256"
        }
      ],
      "payable": false,
      "stateMutability": "view",
      "type": "function"
    },
    {
      "constant": true,
      "inputs": [],
      "name": "minInvestETH",
      "outputs": [
        {
          "name": "",
          "type": "uint256"
        }
      ],
      "payable": false,
      "stateMutability": "view",
      "type": "function"
    },
    {
      "constant": false,
      "inputs": [],
      "name": "unpause",
      "outputs": [],
      "payable": false,
      "stateMutability": "nonpayable",
      "type": "function"
    },
    {
      "constant": true,
      "inputs": [],
      "name": "minCap",
      "outputs": [
        {
          "name": "",
          "type": "uint256"
        }
      ],
      "payable": false,
      "stateMutability": "view",
      "type": "function"
    },
    {
      "constant": true,
      "inputs": [],
      "name": "multisig",
      "outputs": [
        {
          "name": "",
          "type": "address"
        }
      ],
      "payable": false,
      "stateMutability": "view",
      "type": "function"
    },
    {
      "constant": true,
      "inputs": [],
      "name": "startBlock",
      "outputs": [
        {
          "name": "",
          "type": "uint256"
        }
      ],
      "payable": false,
      "stateMutability": "view",
      "type": "function"
    },
    {
      "constant": true,
      "inputs": [],
      "name": "currentStep",
      "outputs": [
        {
          "name": "",
          "type": "uint8"
        }
      ],
      "payable": false,
      "stateMutability": "view",
      "type": "function"
    },
    {
      "constant": true,
      "inputs": [],
      "name": "paused",
      "outputs": [
        {
          "name": "",
          "type": "bool"
        }
      ],
      "payable": false,
      "stateMutability": "view",
      "type": "function"
    },
    {
      "constant": false,
      "inputs": [],
      "name": "pause",
      "outputs": [],
      "payable": false,
      "stateMutability": "nonpayable",
      "type": "function"
    },
    {
      "constant": true,
      "inputs": [],
      "name": "team",
      "outputs": [
        {
          "name": "",
          "type": "address"
        }
      ],
      "payable": false,
      "stateMutability": "view",
      "type": "function"
    },
    {
      "constant": true,
      "inputs": [],
      "name": "owner",
      "outputs": [
        {
          "name": "",
          "type": "address"
        }
      ],
      "payable": false,
      "stateMutability": "view",
      "type": "function"
    },
    {
      "constant": true,
      "inputs": [],
      "name": "ethReceivedMain",
      "outputs": [
        {
          "name": "",
          "type": "uint256"
        }
      ],
      "payable": false,
      "stateMutability": "view",
      "type": "function"
    },
    {
      "constant": true,
      "inputs": [],
      "name": "ethReceivedPresale",
      "outputs": [
        {
          "name": "",
          "type": "uint256"
        }
      ],
      "payable": false,
      "stateMutability": "view",
      "type": "function"
    },
    {
      "constant": true,
      "inputs": [],
      "name": "totalTokensSent",
      "outputs": [
        {
          "name": "",
          "type": "uint256"
        }
      ],
      "payable": false,
      "stateMutability": "view",
      "type": "function"
    },
    {
      "constant": true,
      "inputs": [],
      "name": "tokensSentPresale",
      "outputs": [
        {
          "name": "",
          "type": "uint256"
        }
      ],
      "payable": false,
      "stateMutability": "view",
      "type": "function"
    },
    {
      "constant": true,
      "inputs": [
        {
          "name": "",
          "type": "address"
        }
      ],
      "name": "backers",
      "outputs": [
        {
          "name": "weiReceived",
          "type": "uint256"
        },
        {
          "name": "tokensSent",
          "type": "uint256"
        },
        {
          "name": "refunded",
          "type": "bool"
        }
      ],
      "payable": false,
      "stateMutability": "view",
      "type": "function"
    },
    {
      "constant": true,
      "inputs": [],
      "name": "crowdsaleClosed",
      "outputs": [
        {
          "name": "",
          "type": "bool"
        }
      ],
      "payable": false,
      "stateMutability": "view",
      "type": "function"
    },
    {
      "constant": true,
      "inputs": [],
      "name": "totalRefunded",
      "outputs": [
        {
          "name": "",
          "type": "uint256"
        }
      ],
      "payable": false,
      "stateMutability": "view",
      "type": "function"
    },
    {
      "constant": true,
      "inputs": [],
      "name": "tokensSentMain",
      "outputs": [
        {
          "name": "",
          "type": "uint256"
        }
      ],
      "payable": false,
      "stateMutability": "view",
      "type": "function"
    },
    {
      "constant": false,
      "inputs": [
        {
          "name": "newOwner",
          "type": "address"
        }
      ],
      "name": "transferOwnership",
      "outputs": [],
      "payable": false,
      "stateMutability": "nonpayable",
      "type": "function"
    },
    {
      "constant": true,
      "inputs": [],
      "name": "token",
      "outputs": [
        {
          "name": "",
          "type": "address"
        }
      ],
      "payable": false,
      "stateMutability": "view",
      "type": "function"
    },
    {
      "constant": true,
      "inputs": [
        {
          "name": "",
          "type": "uint256"
        }
      ],
      "name": "backersIndex",
      "outputs": [
        {
          "name": "",
          "type": "address"
        }
      ],
      "payable": false,
      "stateMutability": "view",
      "type": "function"
    },
    {
      "inputs": [],
      "payable": false,
      "stateMutability": "nonpayable",
      "type": "constructor"
    },
    {
      "payable": true,
      "stateMutability": "payable",
      "type": "fallback"
    },
    {
      "anonymous": false,
      "inputs": [
        {
          "indexed": false,
          "name": "backer",
          "type": "address"
        },
        {
          "indexed": false,
          "name": "amount",
          "type": "uint256"
        },
        {
          "indexed": false,
          "name": "tokenAmount",
          "type": "uint256"
        }
      ],
      "name": "ReceivedETH",
      "type": "event"
    },
    {
      "anonymous": false,
      "inputs": [
        {
          "indexed": false,
          "name": "backer",
          "type": "address"
        },
        {
          "indexed": false,
          "name": "amount",
          "type": "uint256"
        }
      ],
      "name": "RefundETH",
      "type": "event"
    },
    {
      "anonymous": false,
      "inputs": [
        {
          "indexed": false,
          "name": "_contract",
          "type": "address"
        }
      ],
      "name": "LogContractDeployed",
      "type": "event"
    },
    {
      "anonymous": false,
      "inputs": [],
      "name": "Pause",
      "type": "event"
    },
    {
      "anonymous": false,
      "inputs": [],
      "name": "Unpause",
      "type": "event"
    },
    {
      "anonymous": false,
      "inputs": [
        {
          "indexed": true,
          "name": "previousOwner",
          "type": "address"
        },
        {
          "indexed": true,
          "name": "newOwner",
          "type": "address"
        }
      ],
      "name": "OwnershipTransferred",
      "type": "event"
    },
    {
      "constant": false,
      "inputs": [
        {
          "name": "_tokenAddress",
          "type": "address"
        }
      ],
      "name": "updateTokenAddress",
      "outputs": [],
      "payable": false,
      "stateMutability": "nonpayable",
      "type": "function"
    },
    {
      "constant": false,
      "inputs": [
        {
          "name": "_block",
          "type": "uint256"
        }
      ],
      "name": "start",
      "outputs": [],
      "payable": false,
      "stateMutability": "nonpayable",
      "type": "function"
    },
    {
      "constant": false,
      "inputs": [
        {
          "name": "_block",
          "type": "uint256"
        }
      ],
      "name": "adjustDuration",
      "outputs": [],
      "payable": false,
      "stateMutability": "nonpayable",
      "type": "function"
    },
    {
      "constant": false,
      "inputs": [],
      "name": "advanceStep",
      "outputs": [],
      "payable": false,
      "stateMutability": "nonpayable",
      "type": "function"
    },
    {
      "constant": false,
      "inputs": [],
      "name": "prepareRefund",
      "outputs": [],
      "payable": true,
      "stateMutability": "payable",
      "type": "function"
    },
    {
      "constant": false,
      "inputs": [],
      "name": "finalize",
      "outputs": [],
      "payable": false,
      "stateMutability": "nonpayable",
      "type": "function"
    },
    {
      "constant": false,
      "inputs": [],
      "name": "drain",
      "outputs": [],
      "payable": false,
      "stateMutability": "nonpayable",
      "type": "function"
    },
    {
      "constant": false,
      "inputs": [],
      "name": "tokenDrain",
      "outputs": [],
      "payable": false,
      "stateMutability": "nonpayable",
      "type": "function"
    },
    {
      "constant": false,
      "inputs": [],
      "name": "refund",
      "outputs": [
        {
          "name": "",
          "type": "bool"
        }
      ],
      "payable": false,
      "stateMutability": "nonpayable",
      "type": "function"
    },
    {
      "constant": true,
      "inputs": [],
      "name": "numberOfBackers",
      "outputs": [
        {
          "name": "",
          "type": "uint256"
        }
      ],
      "payable": false,
      "stateMutability": "view",
      "type": "function"
    }
  ],
  "bytecode": "0x60806040526000805460a060020a60ff021916905534801561002057600080fd5b5060008054600160a060020a03199081163317909155600280548216736c88e6c76c1eb3b130612d5686be9c0a0c78925b908117909155600380549092161790556a84595161401484a0000000600b556903878516e2730b8c0000600c5566038d7ea4c68000601155674563918244f40000600d55600e805461ff00191690556040805130815290517ff40020e78c6e173ba88aa2c344ed520fab87fe67b9e5aa34626af9d86a3cd47b9181900360200190a161126e806100e26000396000f30060806040526004361061019d5763ffffffff60e060020a60003504166305d0f15b81146101a8578063083c6323146101cf5780630bda4dbf146101e45780630dbd5270146101f957806323548b8b1461020e57806335c2d49d146102235780633cac38e4146102385780633f4ba83a1461024d5780633fa615b0146102625780634783c35b1461027757806348cd4cb1146102a85780634bb278f3146102bd5780634e3b33d4146102d2578063590e1ae3146102da5780635bc34f71146103035780635c975abb1461033c578063618407e5146103515780636691461a146103665780638456cb591461038757806385f2aef21461039c5780638da5cb5b146103b15780639263b559146103c657806394465bf6146103db57806395805dad146103f35780639890220b1461040b578063a5cf56f214610420578063ac1559d214610435578063b630aa481461044a578063b85dfb801461045f578063ccb07cef146104a0578063d9082962146104b5578063ed810d02146104ca578063f2fde38b146104df578063fc0c546a14610500578063fdbdc11214610515575b6101a63361052d565b005b3480156101b457600080fd5b506101bd61079f565b60408051918252519081900360200190f35b3480156101db57600080fd5b506101bd6107a5565b3480156101f057600080fd5b506101bd6107ab565b34801561020557600080fd5b506101bd6107b1565b34801561021a57600080fd5b506101bd6107b7565b34801561022f57600080fd5b506101bd6107bd565b34801561024457600080fd5b506101a66107c3565b34801561025957600080fd5b506101a66107f7565b34801561026e57600080fd5b506101bd61086d565b34801561028357600080fd5b5061028c610873565b60408051600160a060020a039092168252519081900360200190f35b3480156102b457600080fd5b506101bd610882565b3480156102c957600080fd5b506101a6610888565b6101a6610a8c565b3480156102e657600080fd5b506102ef610ad4565b604080519115158252519081900360200190f35b34801561030f57600080fd5b50610318610c9a565b6040518082600281111561032857fe5b60ff16815260200191505060405180910390f35b34801561034857600080fd5b506102ef610ca8565b34801561035d57600080fd5b506101a6610cb8565b34801561037257600080fd5b506101a6600160a060020a0360043516610dfe565b34801561039357600080fd5b506101a6610e44565b3480156103a857600080fd5b5061028c610ebf565b3480156103bd57600080fd5b5061028c610ece565b3480156103d257600080fd5b506101bd610edd565b3480156103e757600080fd5b506101a6600435610ee3565b3480156103ff57600080fd5b506101a6600435610f41565b34801561041757600080fd5b506101a6610f7e565b34801561042c57600080fd5b506101bd610fd2565b34801561044157600080fd5b506101bd610fd8565b34801561045657600080fd5b506101bd610fde565b34801561046b57600080fd5b50610480600160a060020a0360043516610fe4565b604080519384526020840192909252151582820152519081900360600190f35b3480156104ac57600080fd5b506102ef611008565b3480156104c157600080fd5b506101bd611011565b3480156104d657600080fd5b506101bd611017565b3480156104eb57600080fd5b506101a6600160a060020a036004351661101d565b34801561050c57600080fd5b5061028c6110b1565b34801561052157600080fd5b5061028c6004356110c0565b60008054819060a060020a900460ff161561054757600080fd5b600954431015801561055b5750600a544311155b151561056657600080fd5b61056e6110e8565b600160a060020a03841660009081526012602052604090208054919350915015156105ec57601380546001810182556000919091527f66de8ffda797e3de9c05e8fc57b3bf0ec28a930d40b0d285d93c06501cf6a09001805473ffffffffffffffffffffffffffffffffffffffff1916600160a060020a0385161790555b600181018054830190558054610608903463ffffffff61118b16565b8155600e54610100900460ff16600281111561062057fe5b6001141561064b5760055461063b903463ffffffff61118b16565b600555600780548301905561066a565b60045461065e903463ffffffff61118b16565b60045560068054830190555b6008805483019055600154604080517fa9059cbb000000000000000000000000000000000000000000000000000000008152600160a060020a038681166004830152602482018690529151919092169163a9059cbb9160448083019260209291908290030181600087803b1580156106e157600080fd5b505af11580156106f5573d6000803e3d6000fd5b505050506040513d602081101561070b57600080fd5b5051151561071857600080fd5b600254604051600160a060020a03909116903480156108fc02916000818181858888f19350505050158015610751573d6000803e3d6000fd5b5060408051600160a060020a038516815234602082015280820184905290517f81e2ef3ab008d32268f605e85c227e20ef36880e0c4367d2d68966822cd92c6e9181900360600190a1505050565b60115481565b600a5481565b600f5481565b60135490565b600b5481565b600d5481565b600054600160a060020a031633146107da57600080fd5b600e805461ff00191661010017905567016345785d8a0000600d55565b600054600160a060020a0316331461080e57600080fd5b60005460a060020a900460ff16151561082657600080fd5b6000805474ff0000000000000000000000000000000000000000191681556040517f7805862f689e2f13df9f062ff482ad3ad112aca9e0847911ed832e158c525b339190a1565b600c5481565b600254600160a060020a031681565b60095481565b60008054600160a060020a031633146108a057600080fd5b600e5460ff16156108b057600080fd5b600a54431015806108c957506103e8600b540360085410155b15156108d457600080fd5b50600554600454600c549101908110156108ed57600080fd5b600e805460ff1916600190811790915554600354604080517f70a082310000000000000000000000000000000000000000000000000000000081523060048201529051600160a060020a039384169363a9059cbb93169184916370a08231916024808201926020929091908290030181600087803b15801561096e57600080fd5b505af1158015610982573d6000803e3d6000fd5b505050506040513d602081101561099857600080fd5b50516040805160e060020a63ffffffff8616028152600160a060020a03909316600484015260248301919091525160448083019260209291908290030181600087803b1580156109e757600080fd5b505af11580156109fb573d6000803e3d6000fd5b505050506040513d6020811015610a1157600080fd5b50511515610a1e57600080fd5b600160009054906101000a9004600160a060020a0316600160a060020a031663a69df4b56040518163ffffffff1660e060020a028152600401600060405180830381600087803b158015610a7157600080fd5b505af1158015610a85573d6000803e3d6000fd5b5050505050565b600054600160a060020a03163314610aa357600080fd5b600554600454610ab89163ffffffff61118b16565b3414610ac357600080fd5b600e805461ff001916610200179055565b600080548190819060a060020a900460ff1615610af057600080fd5b6002600e54610100900460ff166002811115610b0857fe5b14610b1257600080fd5b600554600454600c54910192508210610b2a57600080fd5b503360009081526012602052604081208054909110610b4857600080fd5b600281015460ff1615610b5a57600080fd5b60028101805460ff19166001908117909155600f8054820190558154601080549091019055805490820154604080517f9dc29fac000000000000000000000000000000000000000000000000000000008152336004820152602481019290925251600160a060020a0390921691639dc29fac916044808201926020929091908290030181600087803b158015610bef57600080fd5b505af1158015610c03573d6000803e3d6000fd5b505050506040513d6020811015610c1957600080fd5b50511515610c2657600080fd5b8054604051339180156108fc02916000818181858888f19350505050158015610c53573d6000803e3d6000fd5b50805460408051338152602081019290925280517f289360176646a5f99cb4b6300628426dca46b723f40db3c04449d6ed1745a0e79281900390910190a160019250505090565b600e54610100900460ff1681565b60005460a060020a900460ff1681565b600054600160a060020a03163314610ccf57600080fd5b600a54431115610dfc57600154600354604080517f70a082310000000000000000000000000000000000000000000000000000000081523060048201529051600160a060020a039384169363a9059cbb93169184916370a08231916024808201926020929091908290030181600087803b158015610d4c57600080fd5b505af1158015610d60573d6000803e3d6000fd5b505050506040513d6020811015610d7657600080fd5b50516040805160e060020a63ffffffff8616028152600160a060020a03909316600484015260248301919091525160448083019260209291908290030181600087803b158015610dc557600080fd5b505af1158015610dd9573d6000803e3d6000fd5b505050506040513d6020811015610def57600080fd5b50511515610dfc57600080fd5b565b600054600160a060020a03163314610e1557600080fd5b6001805473ffffffffffffffffffffffffffffffffffffffff1916600160a060020a0392909216919091179055565b600054600160a060020a03163314610e5b57600080fd5b60005460a060020a900460ff1615610e7257600080fd5b6000805474ff0000000000000000000000000000000000000000191660a060020a1781556040517f6985a02210a168e66602d3235cb6db0e70f92b3ba4d376a33c0f3d9434bff6259190a1565b600354600160a060020a031681565b600054600160a060020a031681565b60055481565b600054600160a060020a03163314610efa57600080fd5b62078f008110610f0957600080fd5b600954610f1d90439063ffffffff6111a116565b8111610f2857600080fd5b600954610f3b908263ffffffff61118b16565b600a5550565b600054600160a060020a03163314610f5857600080fd5b6205ab40811115610f6857600080fd5b436009819055610f3b908263ffffffff61118b16565b600054600160a060020a03163314610f9557600080fd5b600254604051600160a060020a0390911690303180156108fc02916000818181858888f19350505050158015610fcf573d6000803e3d6000fd5b50565b60045481565b60085481565b60065481565b60126020526000908152604090208054600182015460029092015490919060ff1683565b600e5460ff1681565b60105481565b60075481565b600054600160a060020a0316331461103457600080fd5b600160a060020a038116151561104957600080fd5b60008054604051600160a060020a03808516939216917f8be0079c531659141344cd1fd0a4f28419497f9722a3daafe3b4186f6b6457e091a36000805473ffffffffffffffffffffffffffffffffffffffff1916600160a060020a0392909216919091179055565b600154600160a060020a031681565b60138054829081106110ce57fe5b600091825260209091200154600160a060020a0316905081565b600080600d5434101515156110fc57600080fd5b60115461111734670de0b6b3a764000063ffffffff6111b316565b81151561112057fe5b600e549190049150610100900460ff16600281111561113b57fe5b600114156111535761114c816111d7565b9050611166565b611163816064603282020461118b565b90505b600b5460085461117c908363ffffffff61118b16565b1061118657600080fd5b919050565b60008282018381101561119a57fe5b9392505050565b6000828211156111ad57fe5b50900390565b60008282028315806111cf57508284828115156111cc57fe5b04145b151561119a57fe5b60006a1581b6d300d0225a000000600754111515611200576064601e83025b0482019050611186565b6007546a295be96e640669720000001061121f576064601483026111f6565b6007546a3b8e97d229a2d5480000001061123e576064600a83026111f6565b50905600a165627a7a7230582022e6bb1afe50da8d8bc723193fe7ae0bcca68fea1b0c82165b1974a74e3479570029",
  "source": "pragma solidity ^ 0.4.24;\n\nimport \"./Pausable.sol\";\nimport \"./SafeMath.sol\";\nimport \"./Token.sol\";\n\n\n// Crowdsale Smart Contract\n// This smart contract collects ETH and in return sends tokens to contributors\ncontract Crowdsale is Pausable {\n\n    using SafeMath for uint;\n\n    struct Backer {\n        uint weiReceived; // amount of ETH contributed\n        uint tokensSent; // amount of tokens  sent  \n        bool refunded; // true if user has been refunded       \n    }\n\n    Token public token; // Token contract reference   \n    address public multisig; // Multisig contract that will receive the ETH    \n    address public team; // Address at which the team tokens will be sent        \n    uint public ethReceivedPresale; // Number of ETH received in presale\n    uint public ethReceivedMain; // Number of ETH received in public sale\n    uint public tokensSentPresale; // Tokens sent during presale\n    uint public tokensSentMain; // Tokens sent during public ICO   \n    uint public totalTokensSent; // Total number of tokens sent to contributors\n    uint public startBlock; // Crowdsale start block\n    uint public endBlock; // Crowdsale end block\n    uint public maxCap; // Maximum number of tokens to sell\n    uint public minCap; // Minimum number of ETH to raise\n    uint public minInvestETH; // Minimum amount to invest   \n    bool public crowdsaleClosed; // Is crowdsale still in progress\n    Step public currentStep;  // To allow for controlled steps of the campaign \n    uint public refundCount;  // Number of refunds\n    uint public totalRefunded; // Total amount of Eth refunded    \n    uint public tokenPriceWei;  // Price of token in wei\n\n    mapping(address => Backer) public backers; // contributors list\n    address[] public backersIndex; // to be able to iterate through backers for verification.  \n\n    // @notice to verify if action is not performed out of the campaign range\n    modifier respectTimeFrame() {\n        require(block.number >= startBlock && block.number <= endBlock);\n        _;\n    }\n\n    // @notice to set and determine steps of crowdsale\n    enum Step {      \n        FundingPreSale,     // presale mode\n        FundingPublicSale,  // public mode\n        Refunding  // in case campaign failed during this step contributors will be able to receive refunds\n    }\n\n    // Events\n    event ReceivedETH(address backer, uint amount, uint tokenAmount);\n    event RefundETH(address backer, uint amount);\n\n    event LogContractDeployed(address _contract);\n\n\n    // Crowdsale  {constructor}\n    // @notice fired when contract is crated. Initializes all constant and initial values.\n    constructor() public {               \n        multisig = 0x6C88e6C76C1Eb3b130612D5686BE9c0A0C78925B; //TODO: Replace address with correct one\n        team = 0x6C88e6C76C1Eb3b130612D5686BE9c0A0C78925B; //TODO: Replace address with correct one                                                                \n        maxCap = 160000000e18;   // TODO: adjust maxCap by tokens sold in the private sale\n        minCap = 16667 ether;\n        tokenPriceWei = 1 ether/1000;  \n        minInvestETH = 5 ether;     \n        currentStep = Step.FundingPreSale;\n        emit LogContractDeployed(this);\n    }\n\n    // {fallback function}\n    // @notice It will call internal function which handles allocation of Ether and calculates tokens.\n    // contributor will be instructed to provide 250,000 gas\n    function () external payable {           \n        contribute(msg.sender);\n    }\n\n    // @notice Specify address of token contract\n    // @param _tokenAddress {address} address of token contract\n    function updateTokenAddress(Token _tokenAddress) external onlyOwner() {\n        token = _tokenAddress;\n    }\n\n    // @notice It will be called by owner to start the sale    \n    function start(uint _block) external onlyOwner() {   \n        require(_block <= 371520);  // 4.3×60×24×60 days = 371520 assuming 4.3 blocks in minute       \n        startBlock = block.number;\n        endBlock = startBlock.add(_block); \n    }\n\n      // @notice Due to changing average of block time\n    // this function will allow on adjusting duration of campaign closer to the end \n    function adjustDuration(uint _block) external onlyOwner() {\n        // 4.3*60*24*80 days = 495360 allow for 80 days of campaign assuming block takes 30 sec.\n        require(_block < 495360);  \n        require(_block > block.number.sub(startBlock)); // ensure that endBlock is not set in the past\n        endBlock = startBlock.add(_block); \n    }\n\n    // @notice set the step of the campaign from presale to public sale\n    // contract is deployed in presale mode\n    // WARNING: there is no way to go back\n    function advanceStep() external onlyOwner() {\n\n        currentStep = Step.FundingPublicSale;                                             \n        minInvestETH = 1 ether/10;                                \n    }\n\n    // @notice in case refunds are needed, money can be returned to the contract\n    // and contract switched to mode refunding\n    function prepareRefund() external payable onlyOwner() {\n        \n        require(msg.value == ethReceivedPresale.add(ethReceivedMain)); // make sure that proper amount of ether is sent\n        currentStep = Step.Refunding;\n    }\n\n    // @notice This function will finalize the sale.\n    // It will only execute if predetermined sale time passed or all tokens are sold.\n    // it will fail if minimum cap is not reached\n    function finalize() external onlyOwner() {\n\n        require(!crowdsaleClosed);        \n        // purchasing precise number of tokens might be impractical, \n        // thus subtract 1000 tokens so finalization is possible\n        // near the end \n        require(block.number >= endBlock || totalTokensSent >= maxCap - 1000); \n        \n        uint totalEtherReceived = ethReceivedPresale + ethReceivedMain;\n        require(totalEtherReceived >= minCap);  // ensure that minimum was reached\n        crowdsaleClosed = true;                \n        if (!token.transfer(team, token.balanceOf(this))) // transfer all remaining tokens to team address\n            revert();\n        token.unlock();               \n    }\n\n    // @notice Fail-safe drain\n    function drain() external onlyOwner() {\n        multisig.transfer(address(this).balance);               \n    }\n\n    // @notice Fail-safe token transfer\n    function tokenDrain() external onlyOwner() {\n        if (block.number > endBlock) {\n            if (!token.transfer(team, token.balanceOf(this))) \n                revert();\n        }\n    }\n\n    // @notice it will allow contributors to get refund in case campaign failed\n    // @return {bool} true if successful\n    function refund() external whenNotPaused returns (bool) {\n\n        require(currentStep == Step.Refunding); \n        \n        uint totalEtherReceived = ethReceivedPresale + ethReceivedMain;\n\n        require(totalEtherReceived < minCap);  // ensure that campaign failed\n        \n        Backer storage backer = backers[msg.sender];\n\n        require(backer.weiReceived > 0);  // ensure that user has sent contribution\n        require(!backer.refunded);        // ensure that user hasn't been refunded yet\n\n        backer.refunded = true;  // save refund status to true\n        refundCount++;\n        totalRefunded += backer.weiReceived;\n\n        if (!token.burn(msg.sender, backer.tokensSent)) // burn tokens\n            revert();        \n        msg.sender.transfer(backer.weiReceived);  // send back the contribution \n        emit RefundETH(msg.sender, backer.weiReceived);\n        return true;\n    }\n\n    // @notice return number of contributors\n    // @return  {uint} number of contributors   \n    function numberOfBackers() public view returns(uint) {\n        return backersIndex.length;\n    }\n  \n    // @notice It will be called by fallback function whenever ether is sent to it\n    // @param  _backer {address} address of contributor\n    // @return res {bool} true if transaction was successful\n    function contribute(address _backer) internal whenNotPaused respectTimeFrame {\n\n        uint tokensToSend = determindPurchase();\n            \n        Backer storage backer = backers[_backer];\n\n        if (backer.weiReceived == 0)\n            backersIndex.push(_backer);\n\n        backer.tokensSent = backer.tokensSent + tokensToSend; // save contributor's total tokens sent\n        backer.weiReceived = backer.weiReceived.add(msg.value);  // save contributor's total ether contributed\n\n        if (Step.FundingPublicSale == currentStep) { // Update the total Ether received and tokens sent during public sale\n            ethReceivedMain = ethReceivedMain.add(msg.value);\n            tokensSentMain = tokensSentMain + tokensToSend;\n        }else {                                                 // Update the total Ether recived and tokens sent during presale\n            ethReceivedPresale = ethReceivedPresale.add(msg.value); \n            tokensSentPresale = tokensSentPresale + tokensToSend;\n        }                                                     \n        totalTokensSent = totalTokensSent + tokensToSend;     // update the total amount of tokens sent  \n        if (!token.transfer(_backer, tokensToSend)) // Transfer tokens\n            revert();      \n        multisig.transfer(msg.value);   // transfer funds to multisignature wallet             \n        emit ReceivedETH(_backer, msg.value, tokensToSend); // Register event       \n    }\n\n    // @notice It is called by determindPurchase() to determine amount of tokens for given contribution\n    // @param _tokenAmount {uint} basic amount of tokens\n    // @return tokensToPurchase {uint} amount of tokens to purchase\n    function calculateNoOfTokensToSend(uint _tokenAmount) internal view returns(uint) {                                          \n\n        if (tokensSentMain <= 26000000e18)        // First 26,000,000 30% discount\n            return _tokenAmount + ((_tokenAmount * 30) / 100);                 \n        else if (tokensSentMain <= 50000000e18)   // next 24,000,000 20% discount \n            return _tokenAmount + ((_tokenAmount * 20) / 100); \n        else if (tokensSentMain <= 72000000e18)   // next 22,000,000 10% discount\n            return _tokenAmount + ((_tokenAmount * 10) / 100);                     \n        else                                            // remaining 46,000,000 0%\n            return _tokenAmount;\n    }\n\n    // @notice determine if purchase is valid and return proper number of tokens\n    // @return tokensToSend {uint} proper number of tokens based on the timline\n    function determindPurchase() internal view returns (uint) {\n       \n        require(msg.value >= minInvestETH);   // ensure that min contributions amount is met\n\n        // calculate amount of tokens to send  (add 18 0s first)   \n        uint tokensToSend = msg.value.mul(1e18) / tokenPriceWei;  // basic nmumber of tokens to send\n          \n        if (Step.FundingPublicSale == currentStep)   // calculate stepped price of token in public sale\n            tokensToSend = calculateNoOfTokensToSend(tokensToSend); \n        else                                         // calculate number of tokens for presale with 50% bonus\n            tokensToSend = tokensToSend.add((tokensToSend * 50) / 100);\n          \n        require(totalTokensSent.add(tokensToSend) < maxCap); // Ensure that max cap hasn't been reached  \n\n        return tokensToSend;\n    }\n}\n",
  "sourcePath": "/home/bogdan/Ethereum/Projects/TGE/Truffle/contracts/Crowdsale.sol",
  "compiler": {
    "name": "solc",
    "version": "0.4.24+commit.e67f0147.Emscripten.clang"
  },
  "schemaVersion": "2.0.1",
  "updatedAt": "2018-08-27T21:52:57.949Z"
}